:020000040800F2
:10000000A860002069010008113B000811370008B2
:10001000A53A0008B9080008493F000800000000A0
:10002000000000000000000000000000153B000878
:10003000250E000800000000133B0008613B00088B
:100040008301000883010008830100088301000880
:100050008301000883010008830100088301000870
:100060008301000883010008830100087D0A00085D
:100070008301000883010008830100088301000850
:10008000830100088301000883010008C9080008F3
:10009000BD080008830100088301000883010008EF
:1000A0008301000883010008830100088301000820
:1000B0008301000883010008830100088301000810
:1000C0008301000883010008830100088301000800
:1000D00083010008D53E000883010008E13E0008C6
:1000E000830100088301000883010008000000006C
:1000F0000000000000000000000000000000000000
:1001000000000000000000008301000883010008D7
:10011000713C00087D3C0008E93B000883010008B1
:10012000830100088301000883010008830100089F
:1001300083010008000000000000000083010008A7
:10014000830100088301000883010008830100087F
:10015000DFF810D000F034FB00480047E942000807
:10016000AFF30080A860002006488047064800479B
:10017000FEE7FEE7FEE7FEE7FEE7FEE7FEE7FEE757
:10018000FEE7FEE7E53B0008510100082DE9F05FBE
:100190000546002092469B468846064681464024F6
:1001A0001BE0284641464746224600F020F85346C9
:1001B0005A46C01A914110D311461846224600F003
:1001C0005BFA2D1A67EB01084F46224601200021F9
:1001D00000F052FA17EB00094E41201EA4F1010471
:1001E000DFDC484631462A464346BDE8F09F202AD8
:1001F00004DB203A21FA02F00021704721FA02F3D1
:10020000D040C2F12002914008431946704740EAAD
:1002100001039B0703D009E008C9121F08C0042A84
:10022000FAD203E011F8013B00F8013B521EF9D26B
:100230007047D2B201E000F8012B491EFBD2704793
:100240000022F6E710B513460A4604461946FFF7A2
:10025000F0FF204610BDF0B480EA0102D40F420046
:10026000B2EB410F02D20246084611464A0042D084
:10027000C30DDDB2C1F3C752AD1A202D35DAC1F37B
:10028000160141F4000204B15242C5F1200602FAFF
:1002900006F12A411044B3EBD05F23D0C4B1012D45
:1002A000A0EBC35009DCF0BC4FF0004202EAC3529D
:1002B000DBB200F5000000F0F7B9400000F18070FB
:1002C00000EBC350A0F1807040EAD170490009E012
:1002D000490841EAC071A0EBC35000F50000400896
:1002E00000EBC350F0BC00F0D6B96142012202EB32
:1002F0004101001BF6E7F0BC704781F00041AAE71E
:1003000080F00040A7E780EA010210B502F0004348
:10031000400022D04A001FD0010E01EB1261C0F351
:100320005600C2F3560240F4000042F40002A0FB63
:10033000022000047F39140400D0401C50EA12400F
:1003400001D44000491EC2B20C0604EBD010401C80
:100350004008802A02D003E0002010BD20F00100F8
:10036000002900DA0020184310BD30B480EA0102F1
:1003700002F0004530F0004221F0004013D090B16F
:10038000C30DD40DC2F31601C0F31600E41A41F4F4
:10039000000140F400027D34914201D3641C00E06E
:1003A0004900002C02DA30BC002070474FF40000F6
:1003B0000023914201D3891A034340084FEA4101C7
:1003C000F7D151B1914202D14FF0004105E002D284
:1003D0004FF0010101E06FF0010103EBC45028442C
:1003E00030BC00F058B9420005D0C0F3C7525242A9
:1003F000914201DC0020704700EBC15070472DE9AD
:10040000FE4F81EA030404F0004421F0004100940F
:100410004FF0000B23F0004350EA01045ED052EA93
:1004200003045BD0C3F30A54C1F30A552C44A4F26D
:10043000F3340194A0FB0254C1F3130141F4801181
:10044000C3F3130343F4801301FB024400FB034E88
:10045000840A970A44EA815447EA8357A4FB076851
:1004600002958D0A05FB07854FEA932C04FB0C547B
:100470002705029D4FEA065847EA1637B5EB0805EF
:100480006EEB070C870E920E47EA811742EA831241
:10049000A7FB0201B6EB0B0164EB00042B0D43EA52
:1004A0000C335E1844EB1C50DA465146E7FB020160
:1004B000C5F313044FEA0B3343EA14534FEA0432F3
:1004C000019C43EA0603A4F10C040294009CCDE9CC
:1004D00000B400F026F903B0BDE8F08F002001461B
:1004E000F9E72DE9F04D81EA030404F0004B21F017
:1004F000004514464FF0000A23F0004150EA05027F
:1005000020D054EA01021DD0C5F30A570246C5F3B4
:100510001303C1F31300C1F30A5640F4801543F4EA
:100520008013A7EB0608101BD64608F2FD3873EBC4
:10053000050002D308F1010801E092185B41B8F10F
:10054000000F03DA00200146BDE8F08D00204FF4D3
:100550008011064684460EE0171B73EB050705D392
:10056000121B63EB050306434CEA010C49084FEAF2
:10057000300092185B4150EA0107EDD152EA0300C6
:1005800012D082EA040083EA0501084305D0101B5B
:10059000AB4106D20122002306E000224FF00043C7
:1005A00002E06FF0010253101AEB06004CEB085109
:1005B00010EB0A0041EB0B01BDE8F04D00F0A2B8D2
:1005C0000EB5C10F80EAE0700844CA07002140F26E
:1005D00033438DE80E000A460B4600F0A2F803B044
:1005E00000BD00F0004220F00040C10DC0F3160035
:1005F00040F400007F2901DA00207047962903DCCF
:10060000C1F19601C84001E096398840002AF4D033
:100610004042704701F0004330B421F0004150EAFD
:10062000010206D00A0DA2F56072C1F31301002A7F
:1006300002DC30BC00207047440F44EAC104C10012
:10064000E01830BC00EBC25000F025B830B50B46C6
:10065000014600202022012409E021FA02F59D42F2
:1006600005D303FA02F5491B04FA02F52844151EC6
:10067000A2F10102F1DC30BD202A04DB203A00FAAD
:1006800002F1002070479140C2F1200320FA03F3E9
:100690001943904070470029A8BF7047401C49008B
:1006A00008BF20F00100704710B4B0FA80FC00FAD7
:1006B0000CF050EA010404BF10BC704749B1CCF102
:1006C000200421FA04F411FA0CF118BF012121438E
:1006D0000843A3EB0C01CB1D4FEA00614FEA102049
:1006E00042BF002010BC704700EBC35010440029EB
:1006F000A4BF10BC7047401C490008BF20F0010097
:1007000010BC704710B5141E73F1000408DA401CC9
:1007100041F1000192185B411A4301D120F0010020
:1007200010BD2DE9F04D92469B4611B1B1FA81F210
:1007300002E0B0FA80F220329046FFF79DFF0446B7
:100740000F4640EA0A0041EA0B0153465A46084365
:1007500013D0114653EA010019D0C8F140025046A7
:10076000FFF745FD05460E46504659464246FFF7FF
:1007700083FF084305D0012004E020463946BDE848
:10078000F08D0020054346EAE0762C4337430A9873
:100790006305E40AA0EB08000022FD0A44EA47547E
:1007A0000A3002D500200146E9E701051019694128
:1007B000DDE9084500196941BDE8F04DA2E70000F8
:1007C000064C074D06E0E06840F0010394E807009E
:1007D00098471034AC42F6D3FFF7BEFC70440008D3
:1007E0009044000870B5044600688168C943C90791
:1007F00017D1816821F00101816001F07FFD05467C
:100800000AE000BF01F07AFD401B022804D92068ED
:100810008068C043C00706D020688068C043C00716
:10082000F0D0002070BDA06A40F01000A062E06A25
:1008300040F00100E062012070BD0000F8B5002624
:100840000446009600688168C943C9072DD08168B5
:1008500041F001018160164816490068B0FBF1F0D3
:1008600000E0401E00900028FBD101F047FD054646
:1008700016E000BF01F042FD401B022810D920689D
:100880008068C043C0070BD0A06A40F01000A0628F
:10089000E06A40F00100E06284F824600120F8BDC5
:1008A00020688068C043C007E4D10020F8BD000084
:1008B000FC00002040420F00FEE70000014800F06D
:1008C00044BF000040080020014800F03EBF000087
:1008D0004008002070B5144C10B1012802D002E08D
:1008E000616900E0A169A06AFFF70DFD4FF0FF31DB
:1008F000FFF779FD616A05460E46FFF7ACFC04463A
:1009000028463146FFF7FCFC0546204603F0CCF8AC
:10091000FFF767FE044C2C342060284603F0C4F82F
:10092000FFF75FFE606070BD5C00002070B5164C84
:1009300010B1012802D002E0616900E0A169A0685D
:10094000FFF7E1FC05464FF0FF31FFF74CFD616812
:100950000C46FFF7D2FC064628464FF03F41FFF712
:10096000D2FC2146FFF7CCFC0446304603F0B6F833
:10097000FFF737FE054D2860204603F0AFF8FFF77C
:1009800030FE686070BD0000040000208800002078
:1009900010B51348002401214461C0E906410460F8
:1009A00044608460C460046101620E2141620146BA
:1009B00000F5D66000F0CEFD08B100F034FA094829
:1009C00001F0D4F808B100F02EFA0221054800F039
:1009D00041FD08B100F027FA03480460446010BDEF
:1009E00090010020400800204000002010B505289C
:1009F0000DD2DFE800F0030507090B000E4C06E0FE
:100A00000E4C04E00E4C02E00E4C00E00E4C40F2A6
:100A1000FF71201DFFF714FC0020C4F80408C4F87F
:100A2000080884F8100809488168491E816001D1CE
:100A30001421816010BD00003031002044390020B5
:100A4000584100206C490020805100205C000020AB
:100A500003F05CBA70B50C4605461B2104A003F0F8
:100A6000BFFA22462946BDE8704002A003F0B8BA9A
:100A7000256300005B25643B25644800014801F0C4
:100A8000C7B900004C0100202DE9F05F0646052E95
:100A90007ED2DFE806F0030507090B00A14C06E053
:100AA000A14C04E0A14C02E0A14C00E0A14CA24802
:100AB000A24DDFF8948200782870A14805F1720AEF
:100AC00040F2FE79007868709E4800270078A87090
:100AD0003046FFF7BDFF2060411C7CD02EB1022EB6
:100AE00017D0032E01D0042EF2D1D4F80418221D01
:100AF0004B1CC4F804388854012084F8100848F8C6
:100B00002600607AB7281DD0D4F804082828DFD33F
:100B100018E02179202903D02028D9D1C4F80478FD
:100B2000D4F80418221D4B1CC4F8043888542079CA
:100B3000202803D1D4F80408202807D0D4F80418BA
:100B40004945C5D33046FFF751FFC1E72022211D9B
:100B50007E48FFF75CFB7D4803F0A4FB0028F1D042
:100B6000BAF80400A0F2DC50FFF72AFDDFF8E0B18C
:100B700000225B46FFF743FC0022764BFFF7B1FCF7
:100B8000FFF748FD6862BAF80000A0F2DC5000E010
:100B90008CE0FFF715FD00225B46FFF730FC0022DA
:100BA0006C4BFFF79EFCFFF735FDA8620120FFF7B5
:100BB00091FEBAF80A00A0F5A061DC390CD0B0F5BE
:100BC0007A7F0BD0B0F5FA6F0CD0A879AE2807D099
:100BD000AF2805D008E01DE0AE2000E0AF20A871EE
:100BE000092202E0CF20A8710D22287820B1A9792E
:100BF000012000F0B7F8AF71A86A10F0FF4FA1D143
:100C0000686A10F0FF4F9DD10922AE21012000F04B
:100C1000A9F897E758F82600002847D194F810085B
:100C2000DFF834814FF0C80A01282DD1052E3DD2BE
:100C3000DFE806F02A2A2A03060084F8107820E06C
:100C400084F810782079B946B7281AD16079AC2891
:100C500017D1E0796871AE2804D0AF2802D0CF2830
:100C600002D00EE0092700E00D27687848B1297806
:100C7000A87831EA00021BD0084202D1201D02F000
:100C80004BFF3046FFF7B2FE687800280ED0D8F848
:100C900000004446002809D13046FFF7A7FE09228C
:100CA000AE21012000F05EF8C4F800A0BDE8F09F7E
:100CB000002FE6DD00210846FFF7CCFEE07B68B39D
:100CC000207C58B3607A48B3A17AFE20FF2900D176
:100CD000A072617BFF2900D16073DFF880B0012230
:100CE0002021584601F005FB0A2001F0F3F93420D9
:100CF00001F05AFB3A464FF47A73211D184802F06E
:100D0000ADFC342001F061FB0A20C8F800A001F01E
:100D1000E1F900222021584601F0EBFA85F8059010
:100D2000AFE7000030310020443900205841002056
:100D30006C49002080510020030000205C0000204E
:100D400002000020000000207C080020E8080020AD
:100D50000000084000408F4058000020000C014077
:100D6000945900202DE9F04107460E4615461046DD
:100D700003F03CFBB7210170AC2141708770C67055
:100D8000A91F017101210446CF2E2CD005206071CE
:100D9000A171E1712146082000F0DCF820721E4E9E
:100DA00001222021304601F0A4FA022001F092F93C
:100DB000342001F0F9FAAAB24FF47A7321461748A9
:100DC00002F04CFC342001F000FB022001F082F91B
:100DD00000222021304601F08CFA204603F018FA58
:100DE0000120BDE8F0810E4A6171108800B202F066
:100DF00090FCA071000AE0712172908800B202F0AC
:100E000088FC6072000AA0720020E07221460C206B
:100E100000F0A0F82073C2E7000C014094590020B4
:100E200088000020704772B6FEE700002DE9F0410F
:100E30003D483E4C007860703D48007820703D4849
:100E4000016800292AD1012100253B4E2F4601606F
:100E50003948103000F084FA37480121103000F092
:100E6000E1F9354846F82570103000F001F946F8F0
:100E700025006D1CEDB2042DEAD32F48103000F090
:100E8000CFFA30684FF49672904209DA7168914255
:100E900006DA00B96760002900D1A760BDE8F081DB
:100EA0006425A0F5E16090FBF5F06843FFF788FB4F
:100EB000224A234BFFF7A3FA0022224BFFF711FB34
:100EC000FFF7A8FB606070686421A0F5E16090FB0B
:100ED000F5F04843FFF774FB1B4A1C4BFFF78FFAF2
:100EE00000221B4BFFF7FDFAFFF794FBA0600120E7
:100EF000FFF71CFD20780028D0D1607820B90D22A2
:100F0000CF210120FFF72EFFA06810F0FF4FC5D1C1
:100F1000606810F0FF4FC1D1BDE8F0410922AE2159
:100F20000120FFF71FBF0000030000200400002085
:100F300002000020900800200C010020A4703D0A4F
:100F4000D7A3F03F0040AF409A99999999990B40E7
:100F500000409F4010B500231A4604E08C5C521CF0
:100F60002344DBB212B28242F8DBD843401CC0B249
:100F700010BD0000F8B50024009490F82420254608
:100F8000012A12D0012280F824204A681F23072A50
:100F90000DD20668776B521E02EB820293409F438C
:100FA0000B6893401F43776319E00220F8BD066881
:100FB0000D2A0AD2376BD21F02EB820293409F4365
:100FC0000B6893401F43376309E0F76A0D3A02EB61
:100FD000820293409F430B6893401F43F7620A6865
:100FE000072306680A2A0AD3F7680A3A02EB420284
:100FF00093409F438B6893401F43F76008E0376935
:1010000002EB420293409F438B6893401F4337613A
:101010000A68102A01D0112A20D1124B02689A4284
:1010200017D193681B0219D4936843F400039360AB
:101030000968102912D10C490C4A0968B1FBF2F178
:1010400001EB8101490000E0491E00910029FBD11C
:1010500004E0816A41F020018162012480F824507B
:101060002046F8BD00240140FC00002040420F0053
:101070000068C06C704700002DE9F0414FF0000798
:1010800004003D467ED0A06A002628B9E66284F8B6
:101090002460204600F07EF82046FFF7A3FBA16AFB
:1010A000C90600D420B1A06A40F01000A06269E037
:1010B000A16A21F4885141F00201A1626268E169EC
:1010C000237B0A4347EA43010A43A1684FF4807730
:1010D000B94209D0012907D05FF0000194F814C08B
:1010E000BCF1010F02D00AE03946F7E7F3B1A36A79
:1010F00043F02003A362E36A43F00103E362236841
:10110000D3F804C02CF4694C4CEA010CC3F804C0B9
:1011100021688B68DFF870C003EA0C0313438B600F
:10112000A168B9420BD0012909D00CE0DFF85CC0FE
:10113000A3690CEB43330B4343F40061DFE7218ADF
:101140000D05A5F580152168CB6A23F470032B43A8
:10115000CB62216889680E4B1940914208D1E66242
:10116000A16A21F0020141F00101A162BDE8F08114
:10117000A06A20F0020040F01000A062E06A40F097
:101180000100E0620120F1E7FDF7E1FF00E0FFFF71
:10119000FE0E1FFF70B586B000250646009501952E
:1011A0000295039500681A4988422ED11949886929
:1011B00040F400708861886900F4007004908869C8
:1011C00040F0040088618869694600F004000490DA
:1011D0000F200090032001900F4800F08DFF104C6D
:1011E0000E48C4E900058020C4E902508000206157
:1011F000800060612020C4E90605204600F02CFF35
:1012000008B1FFF710FE3462666206B070BD0000E0
:101210000024014000100240000801400800024084
:101220004C0100202DE9F84300270D4604460097A5
:1012300001F064F8804620688168C90508D5A06A75
:1012400040F02000A06284F824700120BDE8F883FB
:101250004168C90503D4C06A10F4700F2AD0022077
:1012600001F0F2F83B490968B1FBF0F62068036928
:1012700039490B424FEA61014FEAA1121FD1C368FD
:101280004FEA611C13EA0C0F19D103690B4225D1F7
:10129000C068104222D1142023E0681C0AD02DB16E
:1012A00001F02CF8A0EB0800A84203D920680068E0
:1012B000800725D5206800688007EED52DE00369FA
:1012C0000B4202D1C168114206D0026923490A4289
:1012D00006D1C068084203D1542002E0292000E072
:1012E000FC204643009816E0681C11D02DB101F097
:1012F00005F8A0EB0800A8420AD90098B04207D22E
:10130000A06A40F00400A06284F8247003209DE7E6
:101310000098401C0090B042E6D321686FF01200A4
:101320000860A06A40F40070A06220688068C0F382
:10133000424007280CD1207B50B9A06A20F480706D
:10134000A062A06AC00403D4A06A40F00100A062B9
:1013500000207BE7FC0000202449922449922400CD
:1013600070B5044690F8240001280DD0012084F8BF
:1013700024002046FFF762FA02004FF0000005D07B
:1013800084F82400104670BD022070BDA16A40F2AE
:101390000123994341F48071A1621F4D23681F49C5
:1013A000AB4218D10E6816F4702F14D0A66A46F41A
:1013B0008016A6620E68760505D5A66A26F4005644
:1013C00046F48056A662A66AF6040AD5E66A26F0B6
:1013D0000606E66206E0A66A26F48016A6625E6845
:1013E000E9E7E06284F824006FF0020018602068EA
:1013F0008368C3F34243072B05D1A84208D109688B
:1014000011F4702F04D0816841F480118160B9E734
:10141000816841F4A001F9E700280140042401405B
:1014200010B5044690F82400012807D0012084F864
:1014300024002046FFF7D6F910B107E0022010BDC6
:10144000A16A21F4885141F00101A162002184F8D0
:10145000241010BD90F82020012A07D0022A05D0C0
:10146000416A41F48021416201207047006842696D
:101470000A43426100207047F0B590F8205004689C
:10148000A468012D05D0022D03D0416A41F48021CA
:101490005DE014F0406F01D1E50055D5C4F301645F
:1014A000022C03D9416A41F4000150E00125A54016
:1014B0001D608D684FF4C0739DB1CE6835434E6892
:1014C00045EAC605066803EB0417F5514FF4C275EB
:1014D000076805EB04150E697E51097D012905D0C9
:1014E00009E00E88CD6845EA4655EBE701684E599C
:1014F00046F480764E511179D579567941EA0561E5
:1015000095792D0445EA062529434FF4C6760568EA
:1015100006EB0416A9511178D57841EA0561957852
:1015200052782D0445EA022211434FF4C475026833
:1015300005EB04155151006803EB0411425842F0C9
:10154000010242500020F0BD416A41F400114162A5
:101550000120F0BD10B590F82020012A07D0022A02
:1015600005D0416A41F480214162012010BD3B4811
:10157000D0F8002242F00102C0F80022D0F8002288
:1015800022F47C52C0F80022D0F800224B6A42EAD2
:101590000322C0F800220A7D02F01F0301229A40B4
:1015A000D0F81C329343C0F81C32CB69B3B9D0F8E1
:1015B0000C329343C0F80C328C894B6864F31F43A0
:1015C0004C6900EBC404C4F840320C890B6864F326
:1015D0001F434C6900EBC404C4F84432CB69012BAF
:1015E00016D1D0F80C321343C0F80C320C884B687B
:1015F00064F31F434C6900EBC404C4F840320C8907
:10160000CB6864F31F434C6900EBC404C4F8443254
:101610008B69002BD0F804320ED01343C0F804328B
:101620000B69002BD0F8143208D01343C0F81432E1
:10163000096A012904D008E09343EFE79343F5E7F3
:10164000D0F81C121143C0F81C12D0F8001221F07F
:101650000101C0F80012002010BD0000006400402D
:10166000704730B590F82040012C05D0022C03D0F3
:10167000416A41F480215DE00468002955D0246965
:10168000A40754D04FF4D874056804EB01142D5905
:1016900015F00405956005682D594ED0ED0855608C
:1016A00005682C5904F00204D4604FF4DA7405681C
:1016B00004EB01142D5905F00F05156105682D592E
:1016C000C5F30725956105682C59240C54614FF426
:1016D000DC72046802EB0112A4581C700468A45860
:1016E000240A5C700468A458240C9C700468A258F6
:1016F000120EDA704FF4DE72046802EB0112A45885
:101700001C710468A458240A5C710468A458240C51
:101710009C710468A258120EDA71006881B10169E7
:1017200041F020010161002030BDE468A8E7416A72
:1017300041F400114162012030BD6D0D1560AFE72D
:10174000C16841F02001C160EDE72DE9F05F054679
:10175000006800244669D0F804908768D0F80CB07F
:10176000D0F810A0D0F81880F10748D0F90714D0AD
:1017700001218160B80703D5284600F024FA0CE067
:10178000780702D54FF4006407E0380702D54FF41C
:10179000805402E0284600F015FAF80516D52968AD
:1017A0004FF480708860B80503D5284600F00DFA24
:1017B0000CE0780502D544F4005407E0380502D562
:1017C00044F4804402E0284600F0FEF9F80316D500
:1017D00029684FF480308860B80303D5284600F0AC
:1017E000F6F90CE0780302D544F4004407E038032E
:1017F00002D544F4803402E0284600F0E7F93007CF
:1018000007D55FEACB6004D52968102044F4007442
:10181000C86070074FF0080707D55FEA0B7004D562
:101820002868C760284600F061F9B00706D5286827
:10183000C068800702D0284600F05AF9700607D524
:101840005FEACA6004D52968102044F48064086106
:10185000B00607D55FEA0A7004D5286807612846F4
:1018600000F080F9F00606D528680069800702D0EC
:10187000284600F078F9B00308D55FEAC96005D5BD
:10188000296810204860284600F06EF9F00307D55B
:101890005FEA097004D528684760284600F098F987
:1018A000300446D55FEA497040D5F00504D55FEABB
:1018B000C87001D044F00104B00504D55FEA887017
:1018C00001D544F00204700504D55FEA487001D5E3
:1018D00044F00404300529D518F0700F26D008F024
:1018E0007000402815D006DC102809D020280AD026
:1018F000302816D10AE050280ED0602811D10EE011
:1019000044F008040DE044F010040AE044F0200420
:1019100007E044F0400404E044F0800401E044F4B3
:1019200080742868816921F0700181612968042030
:101930004860002C05D0686A204368622846FFF79B
:101940008FFEBDE8F09F70B5040003D094F820002E
:1019500010B104E0012070BD204600F081F820683D
:10196000016841F00101016000F0C8FC0546052650
:1019700004E000F0C3FC401B0A2811D8206840682E
:10198000C007F6D02068016821F00201016000F074
:10199000B5FC05460BE000F0B1FC401B0A2806D957
:1019A000606A40F40030606284F82060D2E720680A
:1019B00040688007EFD4207E0128206801683DD070
:1019C00021F080010160607E01282068016838D024
:1019D00021F040010160A07E01282068016833D019
:1019E00021F020010160E07E0128206801682ED0EE
:1019F00041F010010160207F01282068016829D092
:101A000021F008010160607F01282068016824D06E
:101A100021F004010160D4E902010843D4E9041271
:101A2000114308436168491E08432168C8610020CA
:101A30006062012084F82000002070BD41F0800128
:101A4000C0E741F04001C5E741F02001CAE721F0BD
:101A50001001CFE741F00801D4E741F00401D9E7D4
:101A600010B586B0002100910191029103910068A8
:101A70001B49884232D11B48C16941F00071C161E4
:101A8000C16901F000710491816941F00401816133
:101A90008069154C00F0040004904FF40060009041
:101AA0006946204600F028FBA01400900220019017
:101AB000032003906946204600F01EFB00221146D9
:101AC000132000F08FFC132000F07FFC0022114651
:101AD000142000F087FC142000F077FC06B010BD45
:101AE0000064004000100240000801407047000000
:101AF00070B51A4B1A4A0021FFF7B3FD08B1FFF782
:101B000092F91649164A083102F13403086814683C
:101B100003EB800543F820405468C5F8444102F5C2
:101B20002F75147A44555135147B445503F22A34E9
:101B3000127C025503EBC002A1F114035028DC68AB
:101B4000C2F87B431B69C2F87F3301DA086801E001
:101B500000200860401C086070BD000038000020B4
:101B6000B8010020704770477047000070B5044608
:101B700090F82000012804D0606A40F400206062E0
:101B800018E0022084F820002068016821F001019B
:101B9000016000F0B3FB05460EE000BF00F0AEFBB5
:101BA000401B0A2808D9606A40F4003060620520B2
:101BB00084F82000012070BD20684068C007EDD186
:101BC000606270BD704770477047704770477047DC
:101BD000704770B54379012B1CD001264671022352
:101BE000037105682B6802F0100440F6FE72A240F3
:101BF0009343D1E900210A43A2401A432A600168B5
:101C00000A68C023A3409A430A600671002141710B
:101C1000084670BD022070BD70B5040003D0207965
:101C2000002510B105E0012070BD6571204600F06F
:101C300007F802202071256101202071002070BD6D
:101C400000B585B0002100910191029103910068D7
:101C50000E49884218D10E48C16941F00051C16156
:101C6000C16901F000510491816941F00401816171
:101C70008069694600F00400049030200090032041
:101C80000190044800F038FA05B000BD007400402F
:101C9000001002400008014010B590F82110002209
:101CA000022905D00421816380F82020012010BD85
:101CB00001680B6823F00E030B6001680B6823F0CA
:101CC00001030B6090F84030C46B012101FA03F36B
:101CD000636080F8211080F82020104610BD0000BD
:101CE0002DE9F05F90F821100024022903D004218F
:101CF0008163012485E001680A6822F00E020A600F
:101D000001680A6822F001020A603F4E3E4FB21598
:101D1000DFF8F4C0DFF8F090DFF8ECA0DFF8E8B00F
:101D2000DFF8E4E00168783F13011502ACF1640CC0
:101D3000A9F15009AAF13C0AABF1280BAEF1140E3F
:101D40004FF48018B14227D9B9420ED0614512D064
:101D500049451DD0514518D0594518D0714501D17C
:101D6000424615E0294EB14201D1012210E0274E32
:101D70001436B14201D110220AE0244E2836B14275
:101D800006D0224A3C32914201D11A4600E02A464E
:101D90001E49091F0A602BE0B94213D0614517D0D4
:101DA000494522D051451DD059451DD0714501D11D
:101DB00042461AE0B14202D14FF0807215E0134E54
:101DC000B14201D1012210E0104E1436B14201D1CE
:101DD00010220AE00D4E2836B14206D00B4A3C32A2
:101DE000914201D11A4600E02A46074980394A60EB
:101DF000012180F82110002180F82010416B01B1F1
:101E000088472046BDE8F09F800002400804024059
:101E10002DE9F05FC16B0A6801680B68046C4FF034
:101E2000040808FA04F8844D844E854FDFF814C284
:101E3000DFF81492DFF814A2DFF814B2DFF814E22E
:101E400018EA020F65D05FEA437862D50A68920605
:101E500003D40A6822F004020A60DFF8F0814FF42C
:101E60008062016808F1140813011402414524D965
:101E7000A9420DD0B1420FD0B9421AD0614515D058
:101E8000494515D0514501D1120312E0594501D100
:101E900004220EE0714501D140220AE06D4D143557
:101EA000A94206D06B4A2832914201D11A4600E07D
:101EB00022466749091F0A6029E0A94213D0B142AE
:101EC00015D0B94220D061451BD049451BD05145A2
:101ED00002D14FF4800217E0414502D14FF08062F9
:101EE00012E0594501D104220EE0714501D1402292
:101EF0000AE0584D1435A94206D0564A283291427C
:101F000001D11A4600E022464B4908394A60C16AAD
:101F100071E04FF0020808FA04F818EA020F70D0D6
:101F20005FEA83786DD50A68920606D40A6822F0C3
:101F30000A020A60012180F82110DFF810814FF4B5
:101F40000072016808F1140813011402414524D9F4
:101F5000A9420DD0B1420FD0B9421AD0614515D077
:101F6000494515D0514501D1120312E0594501D11F
:101F700002220EE0714501D120220AE0354D1435D0
:101F8000A94206D0334A2832914201D11A4600E0D4
:101F900022462F49091F0A6029E0A94213D0B14205
:101FA00015D0B94220D061451BD049451BD05145C1
:101FB00002D14FF4001217E0414502D14FF00072F8
:101FC00012E0594501D102220EE0714501D12022D3
:101FD0000AE0204D1435A94206D01E4A283291420B
:101FE00001D11A4600E02246134908394A6000210F
:101FF00080F82010816A00291CD0BDE8F05F0847F6
:10200000FFE70825A540154214D01A0712D50A6823
:1020100022F00E020A6090F84020C36B012101FA01
:1020200002F25A60816380F82110002180F82010AC
:10203000016BE0E7BDE8F09F080002401C00024091
:102040003000024044000240580002406C00024050
:10205000080402401C04024030B560B11A4B02680B
:1020600014219A4209D2194B1344B3FBF1F18900B0
:10207000016417490AE0012030BD134B5B42134451
:10208000B3FBF1F1890001640F490839C1630221F2
:1020900080F82110136843F6F0718B43F0E90114C6
:1020A0002143D0E902452C4321430469214344697B
:1020B00021438469214319431160002141630122B6
:1020C00042770177084630BD08040240F8FFFDBFA3
:1020D0000000024070B5044600F010F90546601C8F
:1020E00002D004480078044400F008F9401BA042E4
:1020F000FAD370BDF00000202DE9F84FDFF8B89159
:10210000002409F1040A0AF1040B23460F270BF1FE
:10211000040EC9E00125A5402A40AA427DD1674EA0
:10212000D1F804C0ACEB0608B44532D014DCBCF1E5
:10213000030F3AD009DCBCF1000F2AD0BCF1010F2B
:102140001CD0BCF1020F31D11DE0BCF1110F17D032
:10215000BCF1120F2AD119E0B8F5881F19D006DC9E
:10216000B8F5803F15D0B8F5801F1FD111E0B8F544
:10217000001F0ED0B8F5041F18D10AE0CB6815E097
:10218000CB681B1D12E0CB6808330FE0CB680C3323
:102190000CE08B682BB1012B4FF0080303D0456195
:1021A00004E0042302E0056100E00023FF2A01D8D7
:1021B000064601E000F104064FEA840501D9A5F1C5
:1021C0002005D6F8008007FA05FC28EA0C0803FA77
:1021D00005F548EA0508C6F800804D68ED0062D5AF
:1021E000374DAE6946F00106AE61AD6924F00306D5
:1021F00005F001050095334D06EB050CDCF80850A1
:10220000A607360F07FA06F825EA0805DFF8B880B2
:10221000404503D14FF0000817E044E0DFF8AC8000
:10222000404502D14FF001080FE0DFF8A48040459F
:1022300002D14FF0020808E0DFF89880404502D153
:102240004FF0030801E04FF0040808FA06F848EAE6
:102250000508CCF808804D68D9F80060ED034D46BC
:1022600001D5164300E096432E604D68DAF8006011
:10227000AD03554601D5164300E096432E604D68E8
:10228000DBF80060ED025D4601D5164300E09643A1
:102290002E604D68DEF80060AD02754601D516432C
:1022A00000E096432E60641C0D682A46E5407FF4EA
:1022B00031AFBDE8F88F00000004014000001110AC
:1022C000001002400000014000080140000C0140E5
:1022D00000100140001401408068084000D0012037
:1022E0007047C26821EA02030A4043EA02410161E1
:1022F00070470AB1016170470904FBE70148806833
:1023000070470000F0000020024881680278114404
:1023100081607047F0000020074810B5016841F067
:1023200010010160032000F07DF80F2000F006F896
:1023300000F024F8002010BD0020024070B50D4DC3
:1023400004464FF47A712878B1FBF0F00A49096825
:10235000B1FBF0F000F0E0FC48B9102C07D20022ED
:102360002146501E00F03EF800206C6070BD012038
:1023700070BD0000F0000020FC000020094808B5F6
:10238000816941F001018161816901F001010091E0
:10239000C16941F08051C161C06900F08050009076
:1023A00008BD00000010024000280DDB00F01F02F5
:1023B000012191404009800000F1E020C0F8801127
:1023C000BFF34F8FBFF36F8F7047002809DB00F01A
:1023D0001F02012191404009800000F1E020C0F877
:1023E00000117047F0B40E4B1B680C46C3F3022378
:1023F000C3F10705042D00D90425191D072901D2B1
:10240000002300E0DB1E012606FA05F1491E2140EB
:1024100099409E40761E16403143F0BC01F0F0BD5D
:102420000CED00E0064900F0070208684FF6FF03D4
:10243000184040EA0220034A104308607047000039
:102440000CED00E00000FA0530B543A401461DCCB8
:1024500089B004AD85E81D0043A41DCC8DE81D00A6
:102460000020454B454C042941D00BDC012959D0B3
:1024700002293AD100F0F0F96168C1F38131491CB9
:10248000490030E0082948D010292ED1626821681F
:10249000C9012AD504A8C2F38341415CD0031BD5EE
:1024A000E06AE26A00F00F001DF80000D2030AD5CE
:1024B000E26AC2F30315E26A6D1CB3FBF5F3C2F3E3
:1024C0000322921C5343B3FBF0F09DF81D204843B8
:1024D0008A4203D1400801E0294848436168490223
:1024E00003D440000321B0FBF1F009B030BDE16A34
:1024F000890314E000F0C0F9F7E72168C900F4D5BA
:10250000E06AE16AC0F30310401CB3FBF0F0C1F3D2
:102510000331891C48434000E7E7E16A4903002989
:10252000EBDBE7E7226AC2F30121012903D192071D
:1025300001D5C803D9E7022905D1626A920702D5FD
:1025400049F64040D1E70329CFD121688903CCD592
:102550004FF22440C9E700000000040506070809FF
:1025600000000000000D000001020304050607083A
:10257000090A0B0C0D0E0F1000127A000010024019
:1025800000093D002DE9F843044600785B4DC00783
:102590004FF0010951D0E8690026C00008D4E8696D
:1025A00040F08050E861E869012600F0805000901A
:1025B00053480168C90512D40168804641F480710E
:1025C0000160FFF79BFE074605E000BFFFF796FEA0
:1025D000C01B642877D8D8F80000C005F6D5286A53
:1025E00010F440701ED0A18801F44071814219D0CE
:1025F000286A444920F44070C1F8009000220A6023
:102600002862C0070ED0FFF779FE074641F28838EE
:1026100005E000BFFFF772FEC11B414553D8286A91
:102620008007F7D5286A616820F440700843286263
:102630001EB1E86920F08050E8612078800705D558
:102640006868A16820F4404008436860207840072B
:1026500005D5E86AE16820F400300843E862207894
:10266000000705D5E86A216920F480200843E86264
:10267000E86A800302D4E86A400333D52868C000C2
:1026800028D42868400105D5E86AA16900F0F00067
:10269000884225D1E86AA16920F0F0000843E86289
:1026A000E86A616920F470400843E8621649C1F89D
:1026B0007090FFF723FE064608E004E0FFF71EFED9
:1026C000801B642802D90320BDE8F88328688000B5
:1026D000F4D507E0E86A616900F47040884201D0EF
:1026E0000120F1E72078C00605D56868E16920F48B
:1026F0008000084368600020E6E700000010024008
:102700000070004040044242000042422DE9F04780
:102710000F46050061D0434E306800F00700B84214
:1027200009D2306820F0070038433060306800F08C
:102730000700B84251D128683B4C810712D54007A9
:1027400003D5606840F4E06060602878000703D536
:10275000606840F4605060606068A96820F0F00034
:10276000084360602878C00728D06868012810D026
:102770002168022810D0890700292EDA616821F02B
:10278000030101436160FFF7B9FD804641F28839DA
:102790000DE021688903EFE78901EDE7FFF7AEFD62
:1027A000A0EB0801494502D90320BDE8F087606825
:1027B000696800F00C00B0EB810FEFD1306800F0D9
:1027C0000700B8420BD9306820F00700384330606A
:1027D000306800F00700B84201D00120E5E7287812
:1027E000400705D56068E96820F4E0600843606050
:1027F0002878000706D56068296920F4605040EA0F
:10280000C100606000F038F86168084AC1F3031144
:10281000515CC8400649086006480068FFF78EFD15
:102820000020C2E700200240001002405844000887
:10283000FC000020F40000200448054900684968B5
:10284000044AC1F30221515CC8407047FC000020DB
:1028500000100240684400080448054900684968BF
:10286000044AC1F3C221515CC8407047FC000020FB
:102870000010024068440008F0B523A289B00FCAD6
:1028800004AC84E80F0024A10FC98DE80F0026498D
:102890004A68264802F00C03042B2FD0082B2DD1B8
:1028A00004A8C2F38343C45CD00329D5C86A00F0EE
:1028B0000F001DF80020C86AC00316D5C86AC96A8F
:1028C000C0F30310C1F30321401C891CA0FB0223A9
:1028D000A1FB0416154F0025A1FB070C06FB07C63C
:1028E00001FB0561FDF752FC03E010486043B0FBBB
:1028F000F2F09DF81D10A14200D1400809B0F0BDD2
:102900000B486043FAE700000000040506070809C9
:1029100000000000000D0000010203040506070886
:10292000090A0B0C0D0E0F100010024000127A0065
:1029300000093D002DE9F84F040070D02078F14DDA
:10294000C00749D06868C0F38100012807D06868D3
:10295000C0F38100022809D16868C00306D5286841
:10296000800339D5A0680028E7D035E0A068B0F52D
:10297000803F0BD010B1B0F5A02F11D0286820F403
:1029800080302860286820F4802002E0286840F425
:1029900080302860A06890B1FFF7B0FC06460AE0DE
:1029A000286840F480202860F0E700BFFFF7A6FC0D
:1029B000801B642876D828688003F7D50CE0FFF7E1
:1029C0009DFC064605E000BFFFF798FC801B6428CD
:1029D000F0D828688003F7D42078CB4E80074FF0DA
:1029E00001094FF000073AD5686810F00C0F07D0C6
:1029F0006868C0F38100022809D16868C00306D462
:102A00002868800715D56069012808D111E0606940
:102A1000B8B1C6F80090FFF771FC804606E042E1CD
:102A2000FFF76CFCA0EB08000228C3D828688007D9
:102A3000F6D52868A16920F0F80040EAC1002860B6
:102A40000DE03760FFF75AFC804605E0FFF756FCC3
:102A5000A0EB08000228ADD828688007F6D42078BB
:102A600000072ED5A948E169E9B1C0F80090FFF749
:102A700045FC804606E000BFFFF740FCA0EB0800E5
:102A8000022897D8686A8007F6D5A1484FF4FA5112
:102A90000068B0FBF1F0009000BF0098411E00916B
:102AA000FAD20EE0B0E00760FFF728FC804605E0B0
:102AB000FFF724FCA0EB0800022889D8686A800789
:102AC000F6D42078400763D5E8694FF00008C000CD
:102AD00009D4E86940F08050E861E8694FF00108E6
:102AE00000F0805000908B480168C90512D401683D
:102AF000834641F480710160FFF700FC824605E0E7
:102B0000FFF7FCFBA0EB0A0064287DD8DBF800008F
:102B1000C005F5D5206901280AD008B1052813D0D1
:102B2000286A20F001002862286A20F0040002E0F0
:102B3000286A40F001002862206941F2883B98B180
:102B4000FFF7DCFB82460BE0286A40F004002862B5
:102B5000EEE700BFFFF7D2FBA0EB0A01594553D8BF
:102B6000286A8007F6D50CE0FFF7C8FB824605E02F
:102B7000FFF7C4FBA0EB0A01594545D8286A800736
:102B8000F6D4B8F1000F03D0E86920F08050E86176
:102B9000E06AD0B36968C90307D56968C1F38101E8
:102BA000022902D1E96AC9037DD4022808D0E86A63
:102BB00020F48030E862B766FFF7A0FB80463BE078
:102BC0002868C00005D5E86A616B00F0F000884213
:102BD00069D1B766FFF792FB804605E0FFF78EFBF1
:102BE000A0EB0800642874D828680001F6D4E86ACD
:102BF000616B20F0F0000843E862E86A216B20F482
:102C000070600843E86201E063E018E0C6F868908D
:102C1000FFF774FB804605E0FFF770FBA0EB0800B0
:102C2000642856D828680001F6D508E0FFF766FB4F
:102C3000A0EB080064284CD828680001F6D4206A6C
:102C400090B36968C1F38101022949D0022837662F
:102C500003D0FFF753FB04463EE0FFF74FFB074668
:102C600005E000BFFFF74AFBC01B022831D82868E7
:102C70008001F7D4606AB0F5803F09D1E86A6168E5
:102C80000843E862E86AE16820F00F000843E86260
:102C9000D4E909010843696821F4741108436860A4
:102CA000C6F8609001E028E029E0FFF727FB044622
:102CB00005E000BFFFF722FB001B022809D82868A7
:102CC0008001F7D51BE000BFFFF718FB001B0228AF
:102CD00002D90320BDE8F88F28688001F4D40EE003
:102CE0000128F7D06868626A00F48031914204D10B
:102CF000A16A00F47010884201D00120EAE70020A8
:102D0000E8E7000000100240000042428004424216
:102D1000FC0000200070004010B5401EB0F1807F24
:102D200001D3012010BD4FF0E02460610F21601736
:102D300001F066F90020A06107202061002010BD8D
:102D40007047704770B590F83C20012A29D00124C3
:102D500080F83C40022280F83D2003685A689D6854
:102D600022F070060A6832435A600F4B02689A429A
:102D70000BD0B2F1804F08D00C4B9A4205D00C4BCF
:102D80009A4202D00B4B9A4204D1496825F0800345
:102D90001943916080F83D40002180F83C100846BE
:102DA00070BD022070BD0000002C014000040040F6
:102DB00000080040000C004010B5040003D094F857
:102DC0003D0010B107E0012010BD002084F83C0058
:102DD000204600F01FF8022084F83D00211D2068E5
:102DE00000F008FF012084F8460084F83E0084F8D3
:102DF0003F0084F8400084F8410084F8420084F8E1
:102E0000430084F8440084F8450084F83D00002025
:102E100010BD000008B500680B49884212D10B486C
:102E2000C16941F01001C161C069002200F01000C9
:102E3000009011463620FFF7D5FABDE8084036204D
:102E4000FFF7C3BA08BD00000010004000100240A8
:102E500090F83D10012901D001207047022180F82F
:102E60003D100168CA6842F00102CA6000680D495D
:102E700088420BD0B0F1804F08D00B49884205D072
:102E80000A49884202D00A49884204D1816801F087
:102E90000701062903D0016841F00101016000200B
:102EA00070470000002C0140000400400008004072
:102EB000000C0040704770B50446006801694FF08F
:102EC0000005C943890715D4C168C943890711D4CE
:102ED000E91E016101202077206880698007204673
:102EE00002D0FFF7E7FF04E000F098F8204600F07A
:102EF00096F8257720680169C943490717D4C16846
:102F0000C943490713D46FF00401016102202077FF
:102F10002068806910F4407F204602D0FFF7CAFF86
:102F200004E000F07BF8204600F079F8257720686F
:102F30000169C943090716D4C168C943090712D4F6
:102F40006FF008010161042020772068C0698007C4
:102F5000204602D0FFF7AEFF04E000F05FF8204605
:102F600000F05DF8257720680169C943C90617D4C8
:102F7000C168C943C90613D46FF01001016108206C
:102F800020772068C06910F4407F204602D0FFF708
:102F900091FF04E000F042F8204600F040F8257769
:102FA00020680169C943C90708D1C168C943C90775
:102FB00004D1891E0161204600F032F820680169C1
:102FC000C943090609D4C168C943090605D46FF08D
:102FD000800101612046FFF7B3FE20680169C94303
:102FE000490609D4C168C943490605D46FF04001B8
:102FF0000161204600F070F820680169C943890624
:103000000BD4C168C943890607D46FF02001016160
:103010002046BDE87040FFF794BE70BD7047704712
:1030200070B50068284988424DD1284C2068401C62
:103030002060C82819DB0025256060684914401C01
:1030400060602348FFF74DF960683C280DDB656040
:10305000A068401CA0603C2807DBA560E068401C1D
:10306000E060182801DB0120E0601A48016809B11E
:10307000491E0160416809B1491E4160816809B17A
:10308000491E8160C16809B1491EC160016909B169
:10309000491E01610F481430016809B1491E0160E1
:1030A000416809B1491E4160816809B1491E8160CA
:1030B000C16809B1491EC16004491031086800287F
:1030C00001D0401E086070BD001000404800002084
:1030D000001001407C0800207047704770470000D6
:1030E000F8B5026804461068D168536910F00F0FF4
:1030F0004FF0000553D003F0010601F490773743F9
:103100005FD0C20705D0CA0503D5226C42F0010288
:103110002264420705D5DA0703D0226C42F002028E
:103120002264820705D5DA0703D0226C42F004023C
:103130002264020707D501F02002324303D0226C3B
:1031400042F008022264226C002A34D0800604D5A2
:10315000880602D5204600F0B7FD20684069216C42
:10316000C0F38010090700D430B3204600F094FD6E
:103170002068416949061BD5416921F04001416140
:10318000A06BA8B158494163A06BFEF7A9FD0028C8
:1031900011D0A06B416B01B0BDE8F0400847830639
:1031A0000FD58B060DD52046BDE8F84000F08CBD4C
:1031B0002046FFF793FFF8BD2046FFF78FFF2564F9
:1031C000F8BD266B2023012E52D1C60650D5CE065F
:1031D0004ED5106850680090506940062AD5A16B02
:1031E000086840680004000CEAD0A68D8642E7D942
:1031F000E0858869202818D0D06820F48070D060DD
:103200002068416921F0010141612068416921F094
:103210004001416184F83E3025632068C16821F097
:103220001001C160A06BFEF737FDA08DE18D401A43
:1032300081B219E0A08DE18D401A81B2E08D0028A5
:10324000BED00029BCD0D06820F49070D060206837
:10325000426922F00102426184F83E302563206811
:10326000C26822F01002C2602046FFF736FFF8BDA8
:1032700005062BD50D0629D594F83D002128F6D159
:10328000A068B0F5805F01D12069B0B1206A411C0F
:103290002162216800784860E08C401E0004000C28
:1032A000E084E4D12068C16821F08001C160206819
:1032B000C16841F04001C160F8BD206A0088C0F3D8
:1032C00008005060206A801C2062E5E74006F3D5C4
:1032D0004806F1D5D168204621F04001D16084F83C
:1032E0003D3000F014FAF8BD893C000870B50400C8
:1032F00004D094F83D00002510B106E0012070BD17
:1033000084F83C50204600F023F8242084F83D0047
:103310002068C16821F40051C160204600F030FDF2
:103320002068016921F4904101612068416921F020
:103330002A0141612068C16841F40051C1602564DF
:10334000202084F83D0084F83E00002070BD00007D
:10335000F0B585B0002400940194029403940768AA
:103360005C495D48DFF868C10D1502220323C614CD
:10337000674524D1CF6947F40027CF61CF6907F4AF
:10338000002704978F6947F010078F61896901F062
:103390001001CDE90331CDE9005269460546FEF73B
:1033A000ABFECDE90064694628460294FEF7A4FE10
:1033B000002211463420FFF715F8342031E0DFF801
:1033C0001CC1674531D1CD6945F48015CD61CD690A
:1033D00005F4801504958D6945F010058D618D69A2
:1033E00005F0100504958D6945F020058D6189690A
:1033F000039301F0200104914FF48051CDE90012B4
:103400006946FEF779FE0420CDE900046946344898
:103410000294FEF771FE002211463520FEF7E2FF0E
:103420003520FEF7D2FF05B0F0BD2E48874226D1E9
:10343000886940F480408861886900F48040049085
:10344000886940F0040088618869274E00F0040014
:1034500004907815CDE90002694603933046FEF7E3
:103460004BFECDE90054694630460294FEF744FE17
:10347000002211462520FEF7B5FF2520D1E71B4885
:103480008742D0D1C86940F48020C861C86900F47F
:1034900080200490886940F0080088618869CDE93F
:1034A000005200F00800CDE90330114D694628466E
:1034B000FEF722FECDE90064694628460294FEF735
:1034C0001BFE002211462720FEF78CFF2720A8E7CD
:1034D000004C00400010024000100140005000402D
:1034E000001401400038014000080140004800403D
:1034F000000C014090F83E30202B0ED159B152B152
:1035000090F83C30012B08D0012380F83C30002398
:10351000036300F091BC0120704702207047000057
:10352000F8B5464A00681315811A454E0025454CEA
:1035300040F2FF77904248D022DC434940181ED029
:1035400098421CD141480068016840683C4900909D
:103550000122091D3D48FFF7CDFF3D48D0F8101866
:10356000B94201D1C0F81058394BD0F810281033A7
:103570003179D154D0F81018491CC0F81018F8BD92
:1035800099423BD0B1F56C4FF9D1304844380068CE
:103590000168406800902A492C480122091D4438DE
:1035A000FFF7A8FF2B48D0F80018A1F5E062FE3A1B
:1035B00001D1C0F80058D0F8002831798154D0F8F2
:1035C0000018491CC0F80018F8BD2048CC38006825
:1035D0000168406800901A491C480122091DCC3836
:1035E000FFF788FFA069B84200D1A5611A4AA16916
:1035F00030798854A069401CA061F8BD1348883810
:1036000000680168406800900D4910480122091DBA
:103610008838FFF76FFFD4F82008B84201D1C4F80A
:103620002058084AD4F82018203230798854D4F829
:103630002008401CC4F82008F8BD0000004C0040E1
:103640005C0000200829002000BCFFBF605A002059
:103650000819002008090020202100202DE9F84346
:10366000044690F83D001F4616460D4620284CD1D2
:10367000C5B1BEB194F83C00012846D0012084F8C1
:103680003C004FF00008C4F84080212084F83D0041
:10369000FEF734FEA6848146E684A068B0F5805F1C
:1036A00003D004E00120BDE8F883206928B12E464C
:1036B0005FF0000584F83C800EE00026FAE78021E8
:1036C000204600F0D4FBA0B9AEB116F8010B21687A
:1036D0004860E08C401EE084E08C4B464FF00002D6
:1036E00000970028EBD14FF04001204600F0BFFBCF
:1036F00030B10320D7E735F8020BC0F30800E6E746
:10370000202084F83D000020CDE70220CBE7704761
:10371000FEE708B58DF80000000A8DF80100BDF83D
:10372000000008BDFEB500242548009401942349FB
:1037300002940160891581600473012505750426D2
:1037400006614FF460214460C0E90651FDF794FC26
:1037500008B1FDF768FB02278DE8B00069461848FC
:10376000FDF708FC08B1FDF75EFBCDE9005769469F
:103770001348FDF7FFFB08B1FDF755FB0325CDE925
:10378000007569460E48FDF7F5FB08B1FDF74BFBE8
:10379000CDE9005669460A48FDF7ECFB08B1FDF794
:1037A00042FB0848064907600020103941F82040D4
:1037B000401CC0B20428F9D3FEBD00000024014023
:1037C0001C010020900800200F4810B50D49016031
:1037D0002821416000214FF460228160C0E903127A
:1037E0004FF480124261017641768176C17601778D
:1037F0004177FEF7A8F8002803D0BDE81040FDF798
:1038000012BB10BD00640040400800201CB500241D
:10381000104900940E48019408600846FEF7FCF930
:1038200008B1FDF700FB00940022694609480194A5
:10383000FEF7CFF908B1FDF7F6FA10226946054800
:10384000FEF7C7F9002801D0FDF7EDFA1CBD000016
:103850000074004068080020094808B5416941F03B
:10386000010141614069002200F001000090114611
:103870000B20FEF7B7FDBDE808400B20FEF7A5BD05
:10388000001002402DE9F04786B00024354800942E
:10389000019402940394816941F01001816181696E
:1038A00001F010010491816941F020018161816979
:1038B00001F020010491816941F004018161816975
:1038C00001F004010491816941F00801816180697E
:1038D000DFF8949000F008004FF4005504900022A7
:1038E00029464846FEF705FD4FF470770122394618
:1038F0004846FEF7FEFCDFF874A04FF4187800226B
:1039000041465046FEF7F5FC009502260125039638
:10391000CDE9015469464846FEF7EEFB30208DE8BC
:10392000310069464846FEF7E7FB4FF203008DE899
:10393000310069465046FEF7DFFB0097CDE901569E
:10394000694648460396FEF7D7FBCDF800800396FC
:10395000CDE9015469465046FEF7CEFB06B0BDE8FE
:10396000F08700000010024000100140000C0140F0
:103970001CB500240E4800940C49019401604FF4DA
:103980006161C0E9011463218461C160FFF714FA29
:1039900008B1FDF748FA0094694605480194FFF71D
:1039A000D1F9002801D0FDF73EFA1CBD00100040FF
:1039B000A00800200E4810B50C4901604FF4614189
:1039C00041604FF48051816000214FF48062C0E972
:1039D00003120C22C0E90521C161FFF787FC002812
:1039E00003D0BDE81040FDF71EBA10BD004C0040EA
:1039F000945900200C4810B50A4901604FF4614108
:103A00004160002181600422C160C0E9041281612B
:103A1000C161FFF76BFC002803D0BDE81040FDF743
:103A200002BA10BD00500040D85900200D4810B512
:103A30000B4901604FF4E13141604FF480518160E6
:103A400000210C22C160C0E904128161C161FFF74D
:103A50004DFC002803D0BDE81040FDF7E4B910BDCF
:103A6000003801401C5A00200D4810B50B49016078
:103A70004FF4E13141604FF48051816000210C220C
:103A8000C160C0E904128161C161FFF72FFC002809
:103A900003D0BDE81040FDF7C6B910BD0048004096
:103AA000605A0020FEE7000010B5094C2169FCF7C0
:103AB0002AFCE169FCF759FCE168FCF724FC0549A4
:103AC000884202D20449884200DD084610BD000049
:103AD0005C000020000048C30000484310B5094CBA
:103AE0002169FCF710FCE169FCF73FFCE168FCF799
:103AF0000AFC0549884202D20449884200DD084692
:103B000010BD000004000020000048C3000048432E
:103B1000FEE770477047000010B50F4982780F4BE1
:103B20000A600022CA608A6002790A61C17819704D
:103B30000279411D581CFCF76AFB084B06491B1F04
:103B40001A1D01F26C60FDF797FC002803D0BDE858
:103B50001040FDF768B910BDD401002030000020EE
:103B6000FEF7D2BB70B59CB038216846FCF768FB05
:103B700014210EA8FCF764FB202113A8FCF760FBBE
:103B8000012600243004CDE902040225CDE90850C5
:103B90000096059601944FF4E010CDE90A046846BA
:103BA000FEF7C8FE08B172B6FEE70F20CDE90E059C
:103BB0004FF48060CDE9104002210EA81294FEF768
:103BC000A5FD08B172B6FEE713A813951594FEF78C
:103BD000D9FC08B172B6FEE7014806671CB070BD9B
:103BE00000004242704700000148FFF764B900003E
:103BF000A0080020F0B50268194B1A4C1A4D1B4E54
:103C00004FF08047984207D0B84205D0A04203D079
:103C1000A84201D0B04204D122F0700C4A6842EAB6
:103C20000C02984207D0B84205D0A04203D0A84267
:103C300001D0B04203D122F44074CA6822434C69D7
:103C400022F08002224302608A68C2620A688262AD
:103C5000984201D10969016301214161F0BD000071
:103C6000002C01400004004000080040000C00400F
:103C70000148FFF735BA0000945900200148FFF7CA
:103C80002FBA0000D859002010B5406A0021C18524
:103C9000C184FFF723FA10BD0168CA6822F490724C
:103CA000CA6001684A6922F001024A61016B012978
:103CB00004D10168CA6822F01002CA60202180F88D
:103CC0003E1000210163704708B590F83E1022298C
:103CD00001D0022008BD82684FF480539A4201D17E
:103CE000016921B1816A9A421BD04AB10AE0026897
:103CF000816A5268C2F308020A80816A891C08E05E
:103D0000026972B10268526802F07F020A70816A29
:103D1000491C8162C18D491E0904090CC18503D06B
:103D200019E002685268F1E70168CA6822F02002CF
:103D3000CA600168CA6822F48072CA6001684A6970
:103D400022F001024A61202180F83E10016B012916
:103D500003D0FFF7E5FB002008BD002101630168E7
:103D6000CA6822F01002CA6001680A68D20602D549
:103D70000A6849680091818DFFF7AFF9EBE7000011
:103D800070B5044600680169E26821F440511143AE
:103D900001612169A0680843616908432168CA6814
:103DA00041F20C639A430243CA6020684169A269E8
:103DB00021F44071114341611E492068884202D1BB
:103DC000FEF74AFD01E0FEF737FD00EBC00101EB15
:103DD0000012606864218000B2FBF0F3B3FBF1F3E2
:103DE0006FF018067343B2FBF0F5B2FBF0F605EB8B
:103DF0008305322303EB0515B5FBF1F5B6FBF1F6B0
:103E000005F0F00505EB0615B2FBF0F6B2FBF0F09D
:103E1000B0FBF1F06FF01802504306EB800003EBAB
:103E20000010B0FBF1F0216800F00F00284488601A
:103E300070BD00000038014081628285C28500218A
:103E40000164222280F83E2080F83C100168CA6894
:103E500042F48072CA6001684A6942F001024A6114
:103E60000068C16841F02001C160002070472DE961
:103E7000F041984617460E460446069D1DE0681C14
:103E80001BD02DB1FEF73AFAA0EB0800A84214D9D6
:103E90002068C16821F4D071C1602068416921F0B7
:103EA00001014161202084F83D0084F83E0000209B
:103EB00084F83C000320BDE8F0812068006836EA01
:103EC000000004D00020B842D9D00020F3E7012040
:103ED000F9E700000148FFF703B900001C5A002071
:103EE0000148FFF7FDB80000605A002000EB0021F8
:103EF000054800EBC10000F5006003C8814201D114
:103F000001207047002070470809002000B50246D4
:103F1000FFF7ECFF10B14FF0FF3000BD094802EB96
:103F2000022100EBC100D0F80418A1F5E062FE3ACE
:103F300002D10021C0F804184A1CC0F80428085C0B
:103F400000BD000008090020FEE7000070B5204811
:103F50000024204D0471C0F80448C0F80C4880F8D3
:103F6000104800F6140000220471C0F80448C0F89C
:103F70000C4880F8104800F6140040210471C0F885
:103F80000448C0F80C4880F8104800F6140004718A
:103F9000C0F80448C0F80C4880F8104800F6140037
:103FA0000471C0F80448C0F80C4880F8104828464E
:103FB000FEF79FF9002220212846FEF79AF90648CD
:103FC000064AC821447184711160046270BD00000A
:103FD00030310020000C01405C000020580000201F
:103FE0000FB4054B10B503A9044A029800F028F855
:103FF00010BC5DF814FB0000F9410008000100202E
:104000000907090E002804DB00F1E02080F8001405
:10401000704700F00F0000F1E02080F8141D704799
:1040200002E008C8121F08C1002AFAD17047704781
:10403000002001E001C1121F002AFBD170470000DF
:104040002DE9FF4F8BB09A460F460546002606E045
:1040500025280BD052460D9990476D1C761C287868
:104060000028F5D10FB03046BDE8F08F0024A046FF
:104070000122604900E0044315F8013F203B02FAA9
:1040800003F00842F7D128782E2817D115F8010F30
:1040900044F004042A280ED06FF02F022878A0F1F3
:1040A000300109290AD808EB880102EB410100EB35
:1040B00001086D1CF2E757F8048B6D1C28786928FD
:1040C0003ED006DC0028CDD063280BD0642804D174
:1040D00036E0732810D075284BD052460D99904782
:1040E000761C85E017F8040B8DF8000000208DF891
:1040F0000100E946012003E057F8049B4FF0FF3030
:1041000061074FF0000401D40AE0641C44450DDA55
:104110008442FADB19F804100029F6D106E0641C89
:104120008442FCDB19F804100029F8D1264404E08D
:1041300019F8010B52460D999047641EF8D257E0CA
:1041400001CF4FF00A0B002802DA40422D2102E095
:10415000210504D52B218DF82410012103E0E1076E
:1041600005D02021F7E70DF1200908910CE000218E
:10417000F9E701CF4FF00A0BF9E75946FCF766FA69
:1041800001F1300209F8012D0028F6D1ADEB09004C
:1041900000F1200B600701D44FF00108D84502DD83
:1041A000A8EB0B0000E000208046002406E009A8F0
:1041B0005246005D0D999047641C761C0898844215
:1041C000F5DB04E0302052460D999047761CB8F19B
:1041D0000001A8F10108F5DC05E019F8010B5246D1
:1041E0000D999047761CBBF10001ABF1010BF4DC9B
:1041F0006D1C34E70928010013B54FF6FF73012247
:1042000069460248FFF72AFA00981CBD1C5A002094
:1042100010B5002821D0114B0022001F196803E0BF
:10422000814203D80A4649680029F9D152B113687E
:10423000841A9C4204D1006818441060104602E0C1
:10424000506000E0186039B102680B1A934203D144
:104250000B681A4402604968416010BD04010020E7
:10426000084A4FF6FF710020135C401CC91A89B23E
:104270001E28F9DBD08B884201D101207047002035
:1042800070470000E808002005480178202902D185
:104290004078402801D0002070470120704700007E
:1042A000E808002010B50446FFF7EEFF002807D00D
:1042B000FFF7D6FF002803D0204600F003F80120C6
:1042C00010BD000010B50020054B064A02215C1805
:1042D000891C248822F81040401C0628F7DB10BDFA
:1042E000E8080020CE000020FEF716F8FFF73AFCA1
:1042F000FFF7C8FAFFF7B0FAFFF766FAFFF75AFBC5
:10430000FFF778FBFFF792FBFFF7AEFBFFF730FB01
:10431000FFF708FAFFF77AFA2B48FEF799FD01221A
:104320002A492B48FFF7E6F8012228492948FFF7D8
:10433000E1F8012225492848FFF7DCF8012223494A
:104340002648FFF7D7F8FFF701FEFCF721FB244DC5
:10435000DFF890906E1C244C4FF4004AAF1C4FF4D1
:10436000804B05F1030802212046FDF7B5FF00B19F
:104370000120287010214846FDF7AEFF00B1012052
:10438000307051462046FDF7A7FFC0B100203870BD
:1043900059462046FDF7A0FF98B1002188F800108B
:1043A0000020FCF771FB0220FCF76EFB0320FCF7FA
:1043B0006BFB0420FCF768FBFCF738FDD3E701201A
:1043C000E5E70121EAE70000A008002060000020E6
:1043D0001C5A0020605A002094590020D85900200F
:1043E0000000002000100140000C0140F0B50B302F
:1043F000154D20F007010024144A0FE003688B429A
:104400000BD38B4205D95E1A43184768C3E900678E
:1044100000E04368136002C004E0021D1068002839
:10442000ECD12046002802D1286808B10020F0BD58
:10443000064A07481060074A121A22F00702C0E92C
:10444000002401202860D7E7080100200401002093
:10445000AC5A0020A85C0020000000000000000012
:10446000010203040607080900000000010203041A
:1044700090440008000000200C01000020400008CB
:104480009C4500080C0100209C5F000030400008A3
:10449000000000000000000000000000000000001C
:1044A0000000D041D4C918413333333F9A99193FA2
:1044B000EC51383E00000000000000000000000049
:1044C00000000000000000000000000000000000EC
:1044D00000000000000000000000000000000000DC
:1044E00000000000000000000000000000000003C9
:1044F00000000000140000000000D041D4C91841A1
:104500003333333F9A99193FEC51383E0000000095
:10451000000000000000000000000000000000009B
:104520000F01042000FF0740000210802C64210BC3
:1045300059084000021080000000FF03FF03FF0342
:10454000FF03FF03FF03FF03FF03FF03FF03FF035B
:10455000FF03FF03FF03FF03FF0300000000DC0570
:10456000DC05DC05DC05DC05DC05DC05DC05DC0543
:10457000DC05DC05DC05DC05DC05DC05DC05000014
:104580000100000010000000000000000024F40002
:0C4590000000000000000000000000001F
:04000005080001519D
:00000001FF
